:020000040800F2
:100000006809002079020008472F0008292B000802
:10001000452F0008CD070008B1310008000000009E
:100020000000000000000000000000003131000866
:100030008B08000800000000492F00083331000839
:10004000930200089302000893020008930200083C
:10005000930200089302000893020008930200082C
:10006000930200089302000893020008D1070008D9
:10007000930200089302000893020008930200080C
:10008000930200089302000881030008930200080D
:1000900093020008930200089302000893020008EC
:1000A00093020008930200089302000893020008DC
:1000B00093020008930200089302000893020008CC
:1000C00093020008930200089302000893020008BC
:1000D00093020008930200089302000893020008AC
:1000E000930200089302000893020008930200089C
:1000F000930200089302000893020008930200088C
:10010000930200089302000893020008930200087B
:10011000930200089302000893020008930200086B
:10012000930200089302000893020008930200085B
:10013000930200089302000893020008930200084B
:10014000930200089302000893020008930200083B
:10015000930200089302000893020008930200082B
:10016000930200089302000893020008930200081B
:10017000930200089302000893020008930200080B
:1001800093020008930200089302000893020008FB
:100190009302000800000000930200089302000888
:1001A00093020008930200089302000893020008DB
:1001B00093020008930200089302000893020008CB
:1001C00093020008930200089302000893020008BB
:1001D000930200089302000800F002F800F03CF8D7
:1001E0000AA090E8000C82448344AAF10107DA4592
:1001F00001D100F031F8AFF2090EBAE80F0013F0A8
:10020000010F18BFFB1A43F00103184740300000EC
:1002100060300000103A24BF78C878C1FAD852077D
:1002200024BF30C830C144BF04680C607047000070
:100230000023002400250026103A28BF78C1FBD8EF
:10024000520728BF30C148BF0B6070471FB502F08E
:10025000EFFF1FBD10B510BD00F058F81146FFF7B5
:10026000F5FF02F0B7FF00F076F803B4FFF7F2FFF6
:1002700003BC00F07DF800000948804709480047AA
:10028000FEE7FEE7FEE7FEE7FEE7FEE7FEE7FEE746
:10029000FEE7FEE704480549054A064B70470000A3
:1002A000A1310008D9010008680300206809002076
:1002B00068050020680500204FF0000200B51346D5
:1002C00094469646203922BFA0E80C50A0E80C5076
:1002D000B1F12001BFF4F7AF090728BFA0E80C5027
:1002E00048BF0CC05DF804EB890028BF40F8042B20
:1002F00008BF704748BF20F8022B11F0804F18BF8D
:1003000000F8012B7047704770477047754600F042
:100310002BF8AE4605006946534620F00700854697
:1003200018B020B5FFF7B6FFBDE820404FF000063B
:100330004FF000074FF000084FF0000B21F00701CD
:10034000AC46ACE8C009ACE8C009ACE8C009ACE810
:10035000C0098D46704710B50446AFF300802046B3
:10036000BDE81040FFF781BF00487047040300203C
:1003700001491820ABBEFEE72600020070470000CE
:10038000014800F0D1BD00004000002018B5002851
:1003900018D012490A6842F080720A6010490A684F
:1003A00042F001020A600A6812F0010F0D4A126859
:1003B00009D04B680C4CB2FBF4F242434868C01AB7
:1003C0009042FBD318BD0949B2FBF1F141430091C2
:1003D00000E000BF491E0091FBD218BDFCED00E01B
:1003E000001000E03C00002040420F00001BB7005E
:1003F00002490020087000F007B800000C0000203F
:10040000084000D00120704770B500F00F040121B2
:100410002046FFF7F5FF144D02464FF400612846D1
:1004200001F01CFB02212046FFF7EAFF02464FF4D1
:100430008051284601F012FB04212046FFF7E0FF1F
:1004400002464FF40051284601F008FB08212046DF
:10045000FFF7D6FF02464FF48041284601F0FEFA2E
:100460000248047070BD0000000400480C00002029
:1004700070B548B3154CE0600020207020716070AA
:10048000A070E07004F11801606108804880486045
:100490000F4908704870E2788A70C8708880C880F8
:1004A00008814881C8600861FFF7A2FF7F21E068EA
:1004B00000F0EEF9050005D002202070E06800F0A1
:1004C00031FD6061284670BD012070BD1000002024
:1004D000700200202DE9F0473B4C4FF001084FF02F
:1004E0000209E06828B121780026384D012905D09D
:1004F00041E084F80090C4F814805AE0617881B338
:10050000314ADFF8CCA01032207911880AEBC007FD
:100510002AF8301052887A808B1A7B60A980EA8092
:10052000687029816A81EB6000F054F82079401CE2
:10053000C0B22071102802D3267184F8038021797B
:10054000214A18323AF8313013800AEBC10043884F
:100550005380406850602970E078A870EE70267073
:100560000EE0FFE7A17839B384F8009000F0DAFCE0
:1005700060612861EE70207802281BD001281BD012
:100580002079FFF741FFA068FFF700FF6670A670B3
:10059000207928700C4902221031E06800F096FFA3
:1005A00060B184F80090E06800F0BCFC60612861F4
:1005B000EE700220BDE8F0870120FBE784F80080A0
:1005C00085F80380F8E7000010000020700200208A
:1005D0007001002030B50B4B03F1800133F830205F
:1005E00021F8302003EBC00501EBC0046B88638069
:1005F00069686160044C04EBC0008282C38281613F
:1006000030BD0000700100207002002010B5846A27
:10061000E16D11F0500F06D0E16DC90625D52046D9
:1006200000F076FC10BDE06D40F40070E0652068DD
:100630000168090716D502F08AFA78B12068C06807
:10064000800400280ADBE06D20F48070E065E06D36
:10065000C00403D4E06D40F00100E065204600F0E6
:100660004BFC10BDC0688007EBE7616D496BBDE8CE
:100670001040084710B5806AC16D41F04001C16566
:10068000016E41F00401016600F042FC10BD10B59E
:10069000806A00F03BFC10BD70B5044600688168BC
:1006A0008268C1F3400112F0010F28D039BB816884
:1006B00001F00D01012914D18168124A1140891CF1
:1006C000816021680320086001F0CEF9054612E040
:1006D00001F0CAF9401B02280DD920688068C007C4
:1006E00009D0E06D40F01000E065206E40F00100A0
:1006F0002066012070BD20688068C007E8D1002016
:1007000070BD0000C0FFFF7FF8B5044600200090D8
:100710002068816811F0010F4AD18168254A114291
:1007200037D18168D5432940491C81602068B0F1E8
:10073000A04F02D02049884201D1204800E0204843
:10074000806800F0E07000020DD51E481E49006868
:10075000B0FBF1F0401C00EB4000800000E0401EC8
:1007600000900028FBD101F07FF906461BE081686C
:1007700011F0010F03D181682940491C816001F00B
:1007800073F9801B02280ED920680068C043C00797
:1007900009D0E06D40F01000E065206E40F00100EF
:1007A00020660120F8BD20680168C943C907DED171
:1007B0000020F8BD3F000080000100500003005001
:1007C000000700503C000020400D0300FEE7000041
:1007D000014800F011BF0000AC00002010B5016816
:1007E0000E4CCAB21423083AA14203D2B2FBF3F270
:1007F0000B4904E0B2FBF3F2094920310832436CA3
:1008000002F01F0223F0030319448164044980317C
:10081000C16401219140016510BD0000080402403F
:10082000000802400179084A01F07F0102EB8102D1
:100830004265054A4432491E826501F01F020121CA
:100840009140C16570470000FC08024030B5D0E916
:1008500013456560446D14B1D0E91645656090F8A4
:10086000444004F01F050124AC40056C6C60046832
:1008700063608368102B036803D099600068C260CE
:1008800030BD9A600068C16030BD704772B6FEE747
:10089000F8B500260446009690F858000D46012849
:1008A0000BD0012084F858002046FFF7F5FE010028
:1008B000E06D04D040F010002AE00220F8BD20F4E2
:1008C000885040F00200E06520688268134B1A40AF
:1008D00005F080431A4342F000428260104A2068CB
:1008E0000EE0009B5B1C0093934209D3E06D20F067
:1008F000020040F01000E06584F858600120F8BD67
:100900008368DB0FEDD1E06D20F0020040F00100C4
:10091000E06584F858600846F8BD0000C0FFFF3F5E
:1009200002DE040070477047704770477047000050
:100930002DE9F04F044690F858009BB00F464FF059
:10094000000B012812D0012084F8580000261796C9
:10095000189620684FF0A048DFF81C91DFF81CA122
:10096000474D404506D12846009508E002201BB0BF
:10097000BDE8F08F48450AD15046CDF800A002F0FE
:10098000E2F80090206802F0DEF840B109E0E06D86
:1009900040F02000E06584F858600120E7E7009807
:1009A00050B1E06D40F02000E0654FF0010B00BF5A
:1009B00084F858605846DAE720684146884201D0FA
:1009C000A84201D12F4800E02F48D7F800C02F4B94
:1009D00040F61F72BCF1000F2DD0D0F808C094F87B
:1009E00038802CF4604C4CEA483CD7F804804CEA40
:1009F000080CC0F808C0D4F800C08C4501D0AC4544
:100A000004D18968AB6801F0010109E0D9F8081048
:100A1000DAF8085001F0010105F001059B6829434F
:100A200003F001031943C3D1BB68396819438368D4
:100A3000934319431DE0876827F460478760276860
:100A40008F4201D0AF4204D18968AB6801F0010147
:100A500009E0D9F80810DAF8085001F0010105F0B2
:100A600001059B68294303F001031943A0D1816864
:100A7000914381609CE70000000400500005005095
:100A80000001005000030050000700500006005015
:100A90002DE9F84F00270446009790F85800DFF83A
:100AA00018840D46B946012811D0012684F85860F3
:100AB000206802F044F860B1E06D40F02000E0658D
:100AC0005FF0010784F858903846BDE8F88F02209F
:100AD000FBE7D5E900210C23206803EA91131844B1
:100AE000036B01F01F014FF01F0C0CFA01FCC2F365
:100AF000846223EA0C038A4013430363206802F0F4
:100B00001EF88246206802F016F85AEA00003CD12E
:100B1000AA6829682068B2F1004F37D002F01FF8A8
:100B20002068416921F00041416120686969C2681B
:100B3000C2F3C102520091402A69042A31D000EB6D
:100B400082002B68026EDFF874C303F0F84302EAF8
:100B50000C020B431A4342F00041016620682A69E7
:100B6000A96900EB8200026E22F080720A430266DD
:100B7000297F20682A69012910D0002100EB82001A
:100B8000026E22F000720A4302667DE0002201F04C
:100B9000E6FF2068416941F00041C5E74FF0007170
:100BA000ECE7002101F0C1FF400320684FF0000195
:100BB00072D001F0BAFF90FAA0F0B0FA80F1286884
:100BC00042036ED090FAA0F0B0FA80F0814204D1D6
:100BD00000221146206801F0D1FF0121206801F0B8
:100BE000A4FF400320684FF001015DD001F09DFF9C
:100BF00090FAA0F0B0FA80F12868420359D090FA38
:100C0000A0F0B0FA80F0814204D1002201212068D6
:100C100001F0B4FF0221206801F087FF4003206843
:100C20004FF0020148D001F080FF90FAA0F0B0FA36
:100C300080F12868420344D090FAA0F0B0FA80F026
:100C4000814204D100220221206801F097FF032194
:100C5000206801F06AFF400320684FF0030133D0A1
:100C600001F063FF90FAA0F0B0FA80F12868420327
:100C70002FD090FAA0F0B0FA80F0814204D1002287
:100C80000321206801F07AFF2068816811F0010FCC
:100C900022D0ACE000E004E001F047FFC0F3846143
:100CA0008DE7C0F3846091E701F03FFFC0F38461FA
:100CB000A2E7C0F38460A6E701F037FFC0F38461C8
:100CC000B7E7C0F38460BBE701F02FFFC0F3846196
:100CD000CCE7C0F38460D0E72A7B296850F8B03FA6
:100CE000C1F3120C23EA0C0302F0180C744A22FA26
:100CF0000CF20A4013430360E968414577D1286844
:100D000041031CD090FAA0F1B1FA81F1491C01F025
:100D10001F0109294FEA403132D8002912D000BF03
:100D200090FAA0F1B1FA81F101F1010101F01F0186
:100D300006FA01F609D100BFC0F3846109E0C0F3EF
:100D40008461E3E7C0F38461EEE790FAA0F1B1FAC1
:100D500081F101F1010101F01F0146EA816102D137
:100D6000C0F3846003E090FAA0F0B0FA80F000F1E4
:100D7000010000F01F0000EB400041EA005132E0AA
:100D800000290ED090FAA0F1B1FA81F101F1010130
:100D900001F01F0106FA01F606D100BFC0F384611D
:100DA00006E0C0F38461F1E790FAA0F1B1FA81F1B5
:100DB00001F1010101F01F0146EA816102D1C0F396
:100DC000846003E090FAA0F0B0FA80F000F1010036
:100DD00000F01F003B4A00EB400002EB005041EAEC
:100DE000000141F00071AA68206801F0B8FE3648A1
:100DF0002B6803423FF466AE21684FF0A04C334DA0
:100E00003348344E614501D0A94201D1024600E089
:100E100032469268DFF8C08002F0E072434503D0AA
:100E2000DFF8B880434521D15FEA02281ED461452E
:100E300006D02B4B99427FF445AEA94200D03046F4
:100E400042F40001826822F0E0720A438260254881
:100E500025490068B0FBF1F0401C00EB4000800029
:100E600000E0401E00900028FBD12BE6DFF87C80DC
:100E700043450DD15FEAC2180AD4A942F5D01C4BF4
:100E80009942F2D0614500D0304642F080710CE0CA
:100E9000DFF860804345E8D15302E6D4A942E4D0AC
:100EA000614500D0304642F48001826822F0E07251
:100EB0000A43826006E6000000007F4000F0FF0366
:100EC000FFFF0700000020FE000008800001005026
:100ED0000003005000070050000021C31000C09024
:100EE000000600503C000020400D0300000052C7E7
:100EF00000050050000084CB0349CA68904201D12C
:100F0000012048707047000010000020704700006A
:100F10000349CA68904201D10120887070470000DF
:100F200010000020006E70472DE9F84F044600685D
:100F3000066845684FF0A048DFF89092404501D020
:100F4000484501D1A24800E0A248806800F01F0790
:100F5000B0070ED5A8070CD5E06DC00603D4E06D30
:100F600040F40060E0652046FFF7DCFC21680220C9
:100F70000860DFF864B2DFF864A2700701D5680783
:100F800003D430073FD528073DD5E06DC00603D414
:100F9000E06D40F40070E065206801F0D8FD60B3BA
:100FA0002068484501D1424604E0584501D15246E7
:100FB00000E00246824208D03FB1052F05D0092F3C
:100FC00003D0484503D1414606E0C16805E05845D5
:100FD00001D1514600E00146C96889040DD4016879
:100FE00009070AD501F0ABFD58B3E06D40F01000E1
:100FF000E065206E40F0010020662046FFF77CFF90
:1010000021680C200860B00601D5A80603D470063C
:101010005FD568065DD5E06DC00603D4E06D40F491
:101020000050E0652068C16C11F4C07F1AD0002127
:10103000009101F08CFD02462068484514D14346DA
:1010400017E02068416821F00C014160E06D20F458
:101050008070E065E06DC004CFD4E06D40F0010029
:10106000E065CAE70121E3E7584501D1534600E0B6
:101070000346834208D03FB1062F05D0072F03D087
:10108000484503D1414606E0C16805E0584501D115
:10109000514600E00146C968009BA3B18B0102D50F
:1010A0008AB18A040FD4026852060CD589020AD488
:1010B00001F041FDF0B3E06D40F01000E065206EFE
:1010C00040F0010020662046FFF72DFC21686020DB
:1010D000086030060BD5280609D5E06D40F4803055
:1010E000E065204600F094F9216880200860F00552
:1010F0000CD5E8050AD5E06D40F40030E0652046E7
:10110000FFF713FC21684FF480700860B0050CD520
:10111000A8050AD5E06D40F48020E0652046FFF781
:1011200005FC21684FF400700860F00631D5E80630
:101130002FD500E009E0E06BE8B12068EFB340454F
:1011400001D0484512D1224811E02068416821F0C1
:1011500060014160E06D20F48050E065E06DC00505
:10116000B1D4E06D40F00100E065ACE7194880685B
:1011700000F4604050B1E06D40F48060E065206EA6
:1011800040F0020020662046FFF7C2FE21681020D2
:101190000860700517D5680515D5E06D40F48040EE
:1011A000E065206E40F00800206621684FF4806002
:1011B00008602046BDE8F84F00E001E0FFF7B4BB4F
:1011C000C068C007D6E7BDE8F88F000000010050F6
:1011D00000030050000700500005005000040050BC
:1011E000F8B54FF0000504002E46009502D0E06DE2
:1011F00010B107E00120F8BD204600F00BF926668B
:1012000084F8586020688168C1F3407119B1816821
:10121000734A1140816020688168C1F3007189B907
:101220008168704A114041F0805181606E486F4979
:101230000068B0FBF1F04000801C00E0401E009010
:101240000028FBD120688168C1F3007141B9E16DCC
:1012500041F01001E165216E41F001012166012597
:1012600001F06DFCE16DC90600D430B1E06D40F0D5
:101270001000E06501252846F8BDE06D20F480707F
:1012800040F00200E0652068816811F0010F27D16D
:101290004FF0A043564A984201D0904204D1996839
:1012A000966801F001010AE052498968524E01F046
:1012B0000101B66806F001063143504EB66806F0EB
:1012C000010631430CD1984201D0904201D14C48E3
:1012D00000E04C486168826822F47C120A43826014
:1012E000E168E06B627F0843A16841EA423108434C
:1012F00094F8241040EA0140012904D1218D424A8A
:1013000002EB41410843E16A29B101F47871226B93
:10131000014342EA01002268D1683C4B1940014375
:10132000D16020680169626B21F040611143016165
:10133000206801F000FC70BB207F94F83810226810
:10134000800340EA4100D16844F20203994301431B
:10135000D16020690028206801690AD041F48031F9
:101360000161206850F8C01F22696FF30D0111431D
:1013700007E021F480310161206850F8C01F6FF34D
:101380000D01016094F8400001280CD0206801692B
:1013900021F001010161606901282068016B21F0E1
:1013A0000F0111D013E0D4E911010843D4E913125D
:1013B0001143084321680A6940F2FC739A431043C1
:1013C00040F001000861E6E7226A521E1143016302
:1013D000E06D20F0020040F00100E0654BE7000006
:1013E000C0FFFF5FC0FFFF7F3C000020400D0300F7
:1013F000000100500004005000050050000600509D
:1014000000030050000700500000FEFF0740F0FFFF
:101410007047000070B59CB00646142115A8FEF771
:101420004BFF54216846FEF747FF3068B0F1A04FEC
:1014300044D14FF40040009080031190684600F0C2
:1014400011FC08B1FFF722FA1D49C86C40F40050A6
:10145000C864C86C00F400501A90C86C40F00100D9
:10146000C864C86C002500F001001A900320CDE983
:101470001605159015A94FF0904000F0D5F9124CC3
:10148000104820600520C4E901058020C4E903500C
:10149000400060618000C4E906052046256200F036
:1014A00009F908B1FFF7F2F974650022114612201C
:1014B000A66200F03FFB122000F02EFB1CB070BDB6
:1014C0000010024008000240AC0000202DE9F04767
:1014D000044600684FF0A0483D4F91468A4640457B
:1014E00001D0B84201D13B4900E03B49896801F095
:1014F0001F0501F024FB002868D194F8580001284A
:1015000064D0012084F8580034492068884201D111
:10151000012000E00020401E28424FF0000605D0C8
:10152000052D03D0092D01D0012003E02046FFF74F
:10153000EBF818B184F85860BDE8F087E06D40F62C
:101540000161884340F48070E0652068B84201D1B1
:10155000414605E02249884201D1224900E0014686
:10156000814200D01DB9E06D20F48010E065E06D8F
:10157000C00404D5206E20F00600206600E0266638
:10158000616D1948C862616D18480863616D18483B
:10159000486321681C20086084F85860206841680E
:1015A00041F0100141602068C16841F00101C16053
:1015B00021684B4652464031606D00F0DDF82168ED
:1015C0008A680C4B1A40121D8A60B5E70220B3E707
:1015D00000010050000300500007005000060050BA
:1015E00000050050000400500D0600088F0600089A
:1015F00075060008C0FFFF7FF0B4016C0C6801683D
:101600000D6890F8442002F01F06042202FA06F347
:10161000234211D06B070FD50B689B0603D40B68D0
:1016200023F004030B6090F8441001F01F018A407E
:10163000016C4A60016B1DE0022303FA06F72742A2
:101640004FF0000C4FF0010218D0AF0716D50C6810
:10165000A40605D40C6824F00A040C6080F8252048
:1016600090F8441001F01F018B40016C4B6080F832
:1016700024C0C16A00291AD0F0BC08470823B3402F
:10168000234214D02B0712D50B6823F00E030B60F6
:1016900090F84410036C01F01F0102FA01F1596047
:1016A000C26380F8252080F824C0416BE2E7F0BCDB
:1016B0007047000070B504000CD02C4A216814203B
:1016C000914209D22A4A0A44B2FBF0F080006064D9
:1016D00028480AE0012070BD244A52420A44B2FB65
:1016E000F0F080006064214808382064022084F80B
:1016F00025000A6847F6F0708243D4E902031843D4
:10170000D4E904352B431843A3691843E36918430C
:10171000236A1843104308602046FFF75FF8A0686B
:101720000025B0F5804F00D165602079A16C00F0F4
:101730007F000860D4E9130141606068401E0328FF
:1017400008D82046FFF76EF8606D0560D4E91601F1
:10175000416002E06565A565E565E563012084F803
:10176000250084F82450002070BD000008040240C9
:10177000F8FFFDBF0000024070B5044690F8240059
:10178000002501280CD0012084F8240094F825605D
:101790000020012E06D084F824000225284670BDC2
:1017A000022070BD022684F82560E0632068066888
:1017B00026F0010606602046FFF748F8206B002857
:1017C0002068016802D041F00E0106E021F004011A
:1017D00001602068016841F00A010160A06C0168A5
:1017E000C90303D5016841F480710160606D18B1CF
:1017F000016841F4807101602068016841F00101D5
:101800000160CBE770B5044600F02EF90546601C78
:1018100002D004484068044400F026F9401BA0426E
:10182000FAD370BD300000202DE9F04FDFF80C92A4
:10183000002301260325A9F1040B85B00F2709F128
:10184000040AABF1040EF1E006FA03FC12EA0C0202
:101850007ED00C7904F00304012C01D0022C20D19D
:10186000846800945C0005FA04F80494009C24EA5F
:1018700008040094D1F80C80049C08FA04F8009C39
:1018800048EA0408C0F80880446824EA0C0491F887
:1018900004C0CCF3001C0CFA03FC4CEA040CC0F8A6
:1018A00004C00C79E443A40702D18C68012C0ED04B
:1018B000C4684FEA430805FA08FC24EA0C04D1F88E
:1018C00008C00CFA08FC4CEA040CC0F80CC00C79F7
:1018D00004F00304022C16D1DC0800EB840CCDF8D4
:1018E00008C0DCF820C05C074FEAD46807FA08F4A7
:1018F0002CEA040C0C6904FA08F444EA0C04DDF840
:1019000008C0CCF8204004684FEA430805FA08FCF8
:1019100024EA0C0491F804C00CF0030C0CFA08FC47
:101920004CEA040CC0F800C04C6814F4403F7CD072
:10193000434CD4F860C04CF0010CC4F860C0246E75
:1019400023F0030C04F0010400943E4C644400E0D6
:101950006BE00294A4684FEA837C4FEA1C7807FA94
:1019600008FC24EA0C04B0F1904F06D0DFF8D8C090
:10197000604505D14FF0010C20E04FF0000C1DE058
:10198000DFF8C8C0604502D14FF0020C16E0DFF866
:10199000C0C0604502D14FF0030C0FE0DFF8B4C0C7
:1019A000604502D14FF0040C08E0DFF8ACC06045A0
:1019B00002D14FF0050C01E04FF0060C0CFA08FCC8
:1019C0004CEA040C029CC4F808C0D9F80040CC468C
:1019D000D1F8048094435FEAC82800D51443CCF8BA
:1019E0000040DAF80040D446D1F8048094435FEA1E
:1019F000882800D51443CCF80040DBF80040DC46D2
:101A0000D1F8048094435FEA883800D51443CCF8B9
:101A10000040DEF80040F446D1F8048094435FEAC9
:101A2000C83800D51443CCF800405B1C0C68224633
:101A3000DC407FF409AF05B0BDE8F08F0804014039
:101A40000010024000000140000400480008004867
:101A5000000C004800100048001400480AB18161E1
:101A6000704781627047000001488068704700003D
:101A7000300000200248816842681144816070474C
:101A80003000002010B50024032000F073F80F2070
:101A900000F008F808B1012401E000F025F8204624
:101AA00010BD000070B50E4E05460024706898B158
:101AB0004FF47A71B1FBF0F00A490968B1FBF0F01C
:101AC00001F01EF840B9102D06D200222946501E02
:101AD00000F030F8356000E00124204670BD0000C1
:101AE000300000203C0000200A4882B0016E41F026
:101AF00001010166016E01F001010091816D41F06B
:101B000080518165806D00F08050009002B000F03F
:101B1000A1B8000000100240002809DB00F01F02FD
:101B2000012191404009800000F1E020C0F800113F
:101B300070470000F0B40E4B1B680C46C3F3022341
:101B4000C3F10705042D00D90425191D072901D269
:101B5000002300E0DB1E012606FA05F1491E2140A4
:101B600099409E40761E16403143F0BC01F021BBE7
:101B70000CED00E0064900F0070208684FF6FF038D
:101B8000184040EA0220034A1043086070470000F2
:101B90000CED00E00000FA052B492C4B0A683221BD
:101BA0004A432B4940B1B0F5007F086829D020F4A2
:101BB000C06040F480602CE00868C0F34120022837
:101BC00004D051F8800F20F4807022E0D1F880001A
:101BD00020F48070C1F88000086820F4C06040F4F0
:101BE00000700860B2FBF3F0401C00E0401E4A6940
:101BF000520501D50028F9D1486940050AD50320CE
:101C00007047C0F34120022806D051F8800F40F4FD
:101C10008070086000207047D1F8800040F4807028
:101C2000C1F88000086820F4C06040F400700860CB
:101C3000B2FBF3F0401C00E0401E4A695205DBD5C0
:101C40000028F9D1D8E700003C00002040420F00F6
:101C5000007000400248816841F480418160704713
:101C6000007000402DE9F843044600680026BB4D93
:101C700000035ED5A86D0027C00008D4A86D40F011
:101C80008050A865A86D012700F080500090DFF813
:101C9000D092D9F8001041F48071C9F80010FFF714
:101CA000E3FE804606E000BFFFF7DEFEA0EB080083
:101CB00002282BD8D9F80000C005F5D5D5F890003A
:101CC00010F4407014D0216D814211D0D5F89000ED
:101CD000D5F8901020F4407041F48031C5F8901090
:101CE000D5F8901021F48031C5F89010C5F8900017
:101CF000C00711D0FFF7B8FE804641F2883907E0EF
:101D0000FFF7B2FEA0EB0801494501D903260BE01D
:101D1000D5F890008007F3D5D5F89000216D20F418
:101D200040700843C5F890001FB1A86D20F08050A6
:101D3000A8652078C00707D0D5F88800616820F032
:101D400003000843C5F888002078800707D5D5F838
:101D50008800A16820F00C000843C5F888002078AE
:101D6000400707D5D5F88800E16820F03000084327
:101D7000C5F888002078000707D5D5F888002169C4
:101D800020F0C0000843C5F888002078C00607D5B9
:101D9000D5F88800616920F440700843C5F88800D0
:101DA0002078800607D5D5F88800A16920F4406026
:101DB0000843C5F888002078400607D5D5F8880084
:101DC000E16920F440500843C5F8880020780006F7
:101DD00007D5D5F88800216A20F440400843C5F8AB
:101DE00088002088C00507D5D5F88800616A20F4EE
:101DF00040300843C5F888002068800307D5D5F82F
:101E00009C00A16A20F003000843C5F89C002088CC
:101E1000800507D5D5F88800E16A20F44020084302
:101E2000C5F88800208840050FD5D5F88800216BBB
:101E300020F440100843C5F88800206BB0F5801FDF
:101E400003D1E86840F48010E860208800050FD5D1
:101E5000D5F88800616B20F440000843C5F888007D
:101E6000606BB0F5800F03D1E86840F48010E86043
:101E70002088C0040FD5D5F88800A16B20F04070F1
:101E80000843C5F88800A06BB0F1807F03D1E868F3
:101E900040F48010E86020884FF0006180040ED587
:101EA000D5F88800E26B20F040601043C5F8880048
:101EB000E06B884203D1E86840F48010E860208835
:101EC00040040ED5D5F88800226C20F04060104305
:101ED000C5F88800206C884203D1E86840F480107F
:101EE000E860208800040FD5D5F88800616C20F0E8
:101EF00040500843C5F88800606CB0F1805F03D1A2
:101F0000E86840F48030E8602068C0030FD5D5F859
:101F10008800A16C20F040400843C5F88800A06C00
:101F2000B0F1804F03D1E86840F48030E860206869
:101F300040030FD5D5F89C00E16C20F44010084315
:101F4000C5F89C00E06CB0F5001F03D1E86840F4D0
:101F50008010E8603046BDE8F883000000100240C1
:101F6000007000402DE9F0470E4605004FF00007D5
:101F700025D0DFF8AC81D8F8000000F00F00B042A7
:101F80000CD2D8F8001021F00F013143C8F800102E
:101F9000D8F8000000F00F00B04210D12968614C61
:101FA000C80741F2883A5AD06868DFF87C91032864
:101FB00008D0022820682DD0400500282CDB012005
:101FC000BDE8F08720688001F9D5E06800F00302E1
:101FD000E068C0F30310401C032A19D0534A00BF25
:101FE000B2FBF0F0E268C2F306225043E268C2F3AB
:101FF0004162521C5200B0FBF2F0484517D9A0686C
:1020000010F0F00F0CD0880711D5A86840B10EE091
:10201000474AE5E78003D0E700F092F8484506D943
:10202000A06820F0F00040F08000A0608027A06849
:10203000696820F003000843A060FFF715FD8146A2
:1020400006E000BFFFF710FDA0EB090151453AD8AB
:10205000A068696800F00C00B0EB810FF2D128682D
:10206000810714D5400703D5A06840F4E060A06064
:102070002878000705D5A06820F4605040F4E0609F
:10208000A060A068A96820F0F000084304E0802F59
:1020900003D1A06820F0F000A060D8F800104046FE
:1020A00001F00F01B14216D9016821F00F0131434F
:1020B0000160FFF7D9FC074607E000BFFFF7D4FC3B
:1020C000C11B514501D903207AE7D8F8000000F080
:1020D0000F00B042F2D12878400705D5A068E96822
:1020E00020F4E0600843A0602878000706D5A068C7
:1020F000296920F4605040EAC100A06000F020F897
:10210000A1680C4AC1F30311515C01F01F01C840E2
:102110000949086009480068BDE8F047FFF7C2BCFC
:10212000002002400010024000B4C4040024F40067
:1021300000127A003A3200083C00002030000020F3
:10214000184910B58868C0F381021748012A0BD0DE
:102150008A684310C2F38102022A06D08A68C2F359
:102160008102032A03D0002010BD184610BDCA68A2
:1021700002F00304CA68C2F30312521C032C02D0FB
:10218000B0FBF2F001E0B3FBF2F0CA68C968C2F339
:1021900006225043C1F34161491C4900B0FBF1F0F4
:1021A00010BD0000001002400024F4002DE9F843A7
:1021B00004007AD02078F84DC00747D0A868E968B5
:1021C00000F00C0001F003010C2802D0082817D001
:1021D00001E0032914D06068B0F5803F17D0B0F556
:1021E000A02F286817D020F480302860286820F4B9
:1021F000802028606068E0B1FFF736FC064614E0F6
:102200002868800322D560680028D2D01EE02868A4
:1022100040F48030EDE740F480202860F7E700BF0D
:10222000FFF722FC801B642870D828688003F7D54C
:102230000CE0FFF719FC064605E000BFFFF714FCB1
:10224000801B6428F0D828688003F7D420788007A2
:102250004CD5A868E96800F00C0001F003010C28D7
:1022600002D004280DD001E002290AD0E06800283D
:1022700028682BD040F480702860FFF7F5FB0646F5
:1022800019E02868400502D5E068002891D0686808
:10229000217C20F0FE4040EA01606860BF48006891
:1022A000FFF700FC002800D120E072E1FFF7DCFB23
:1022B000801B0228B8D828684005F7D56868217CBB
:1022C00020F0FE4040EA016068600FE020F480707A
:1022D0002860FFF7C9FB064605E000BFFFF7C4FB17
:1022E000801B0228A0D828684005F7D42078000772
:1022F00029D560690028D5F8940013D040F001007A
:10230000C5F89400FFF7B0FB064606E090E000BF7A
:10231000FFF7AAFB801B022886D8D5F89400800717
:10232000F6D510E020F00100C5F89400FFF79CFB03
:10233000064604E0FFF798FB801B022878D8D5F802
:1023400094008007F6D42078400761D5A86D002658
:10235000C00008D4A86D40F08050A865A86D012683
:1023600000F0805000908E480168C90511D40168C2
:10237000804641F480710160FFF776FB074604E078
:10238000FFF772FBC01B022852D8D8F80000C00526
:10239000F6D5A068012815D00528D5F8900016D0EC
:1023A00020F00100C5F89000D5F8900020F004005E
:1023B000C5F89000A06841F28838B8B1FFF754FB27
:1023C00007460EE0D5F8900040F00100F0E740F03D
:1023D0000400C5F89000F5E7FFF746FBC11B414537
:1023E00026D8D5F890008007F6D50CE0FFF73CFB27
:1023F000074604E0FFF738FBC11B414518D8D5F864
:1024000090008007F6D41EB1A86D20F08050A8651A
:102410002078800629D5A0690028D5F8980013D027
:1024200040F00100C5F89800FFF71EFB064606E0E5
:1024300075E000BFFFF718FB801B02286FD8D5F8A6
:1024400098008007F6D510E020F00100C5F898004C
:10245000FFF70AFB064604E0FFF706FB801B022895
:102460005DD8D5F898008007F6D4E069F0B3A96884
:10247000C1F3810103295DD00228286820F0807013
:10248000286003D0FFF7F0FA04464BE0FFF7ECFAC0
:10249000064604E0FFF7E8FA801B02283FD82868C8
:1024A0008001F7D4F4E908016FF00F0202EB01118B
:1024B0000843218A5204490802EB4151A26841EACB
:1024C00002210843217D4FF07E42490802EB416121
:1024D0000843217B40EAC160E968324A1140084361
:1024E000E860286840F08070286000E05EE0E868FE
:1024F00040F08070E860FFF7B7FA044605E000BFDF
:10250000FFF7B2FA001B022809D828688001F7D526
:102510004CE000BFFFF7A8FA001B022802D90320F5
:10252000BDE8F88328688001F4D4E8681E490840B3
:10253000E8603BE00128F3D0E868226A00F003017C
:10254000914226D1616A00F0F002090110399142EE
:102550001FD1A26A00F4FE41B1EB022F19D194F809
:102560002C2000F07841B1EBC26F12D1218E00F423
:10257000C00249084905A1F50011914209D194F81A
:10258000341000F0C06049084906A1F10071814291
:102590000CD00120C4E700000010024030000020F1
:1025A000007000400C809F01FCFFEEFE0020B7E7AA
:1025B00070B5040009D0606A002540B125616561ED
:1025C000A56294F85D0040B10CE0012070BD606828
:1025D000B0F5827FF4D0E561F2E784F85C502046E4
:1025E00000F05CF8022084F85D002068016821F0AA
:1025F00040010160E1684FF4E062914201D900209E
:1026000001E04FF48050B1F5706F02D0914200D0DC
:10261000A562A188228901F4827102F40442114367
:10262000227C02F002021143227D02F001021143DA
:10263000228B02F400721143227F02F03802114310
:1026400094F8202002F080021143228D02F40052FF
:10265000114322681160A169042202EA114194F831
:10266000242000F4805002F01002114394F834202A
:1026700002F008021143A28902F47062114301437F
:10268000206841602068C16921F40061C16125664C
:10269000012084F85D00002070BD000010B586B0F8
:1026A000044614216846FDF707FE13492068884256
:1026B0001FD11248016E41F480510166016E01F490
:1026C00080510591C16C41F00101C164C06C694643
:1026D00000F001000590E020009002200190002011
:1026E000029003200390052004904FF09040FFF7E4
:1026F0009BF806B010BD0000003001400010024001
:102700002DE9F84F984616468A460446FFF7ACF97D
:10271000814694F85D00012820D1BAF1000F6FD0F6
:10272000002E6DD094F85C00012817D0012784F8A2
:102730005C70032084F85D0000252566C4F838A08D
:10274000A687E6872564A4F84450A4F8465025657A
:10275000E564A068B0F5004F03D00CE00220BDE8AE
:10276000F88F2068016821F040010160206801684D
:1027700041F48041016020680168490603D4016882
:1027800041F040010160E068B0F5E06F606826D973
:1027900008B1012E1FD1A06B21680088C86006E037
:1027A00020688168890709D5A16B0988C160A06B81
:1027B000801CA063E08F401EE0870CE0FFF754F917
:1027C000A0EB0901414503D3B8F1FF3F03D04BE033
:1027D000B8F1000F48D0E08F0028E1D139E008B10E
:1027E000012E33D1E08F0128A06B03D92168008826
:1027F000C86010E021680078087314E0E08725E0E5
:1028000043E020688168890713D5E18F0129A16B16
:1028100007D90988C160A06B801CA063E08F801E6F
:10282000ECE709780173A06B401CA063E08F401EA9
:10283000E4E7FFF719F9A0EB0901414503D3B8F12B
:10284000FF3F03D010E0B8F1000F0DD0E08F00285B
:10285000D7D14A464146204600F077FB08B12020F8
:102860002066A06830B109E084F85D7084F85C509F
:10287000032074E72068C1688068009084F85D7068
:1028800004F85C5F60680028F3D0012067E72DE959
:10289000FF5F1D46934604464FF001090E9EFFF769
:1028A000E3F8074694F85D006168012806D0B1F5A9
:1028B000827F39D1A168B1BB042835D101980028A5
:1028C0007CD0BBF1000FFBD0002DF9D094F85C0058
:1028D000012829D04FF0010A84F85CA094F85D002B
:1028E000042802D0052084F85D004FF00008C4F8E9
:1028F0006080C4F840B0A4F84650A4F84450019950
:10290000A163E587A587C4F84C80C4F85080E068CF
:102910004FF4E061884201D8012D09D9206842684E
:1029200022F4805208E0FFE7022004B0BDE8F09FE7
:102930002068426842F48052426020680268520671
:1029400003D4026842F040020260E0688842606896
:1029500046D908B1012D3BD1A06B01882068C16028
:10296000A06B801CA063E08F401EE08730E02068F1
:10297000816889070FD5E18F69B1B9F1010F0AD1DB
:10298000A16B0988C160A06B801CA063E08F401E12
:10299000E0874FF0000920688168C90711D0B4F8BA
:1029A000461071B1C068216C0880206C801C2064C6
:1029B000B4F84600401EA4F8460000E09EE04FF048
:1029C0000109FFF751F8C01BB04201D3701C74D14C
:1029D000E08F0028CBD1B4F846000028C7D175E0BD
:1029E00008B1012D6BD1E08F0128A06B08D92168B7
:1029F0000088C860A06B801CA063E08F801E07E089
:102A0000216800780873A06B401CA063E08F401E13
:102A1000E08754E02068816889071AD5E18FC1B149
:102A2000B9F1010F15D1E18F0129A16B07D90988EF
:102A3000C160A06B801CA063E08F801E06E0097857
:102A40000173A06B401CA063E08F401EE0874FF035
:102A5000000920688168C90728D0B4F8461029B356
:102A6000B4F84610012914D9C068216C0880206C84
:102A7000801C2064B4F84600801EA4F84600B4F818
:102A80004600012810D82068416841F48051416017
:102A90000AE0007B216C0870206C401C2064B4F8B4
:102AA0004600401EA4F846004FF00109FEF7DCFF87
:102AB000C01BB04202D3701C01D012E08EB1E08F77
:102AC0000028A7D1B4F846000028A3D13A463146E1
:102AD000204600F03AFA50B12020206684F85C804D
:102AE0000CE084F85DA084F85C8003201DE784F886
:102AF0005DA084F85C80206E0028F7D0012014E7E8
:102B000010B5401EB0F1807F01D3012010BD4FF001
:102B1000E02460610F21601700F04BFB0020A061F2
:102B200007202061002010BDFEE700EB8100006E51
:102B300000F0F84070478068C0F3C00070478068BC
:102B4000C0F3800070478068C0F380007047C068A1
:102B500010F4406F01D0002070470120704704231B
:102B600003EAD15310B518444369C1F30451072453
:102B70008C40A3438A401343436110BD00EB8100A6
:102B8000016E21F0004111430166704770B50446A3
:102B90000A480D4611464280142000F0C1F8002872
:102BA0000AD129460C2000F0BBF8002804D12146A8
:102BB000BDE8704000F0B4B870BD00000400002013
:102BC000012240210148FEF749BF000000040048EF
:102BD00038B500220D468DF80020D0B1114C606050
:102BE0002270628000F058F8002813D108210A20D2
:102BF00000F076F800280DD105F007002070694636
:102C00000A2000F01FF8002804D19DF800000007FA
:102C100001D4012038BD002211464FF6FF70FFF7A6
:102C2000B5FF38BD0400002000B101200449097837
:102C300001F0070140EA410040F040007047000009
:102C400004000020FEB5134D06460C466868C8B166
:102C5000C4B10120FFF7E8FF8DF804008DF805608E
:102C600000208DF8060000F033F80A2000900323BE
:102C700002AA01A96868FFF70AFE0546FFF7A0FF50
:102C800015B104E00120FEBD9DF80A002070284621
:102C9000FEBD00000400002010B50C4C01224021B4
:102CA0002046FEF7DBFE002280212046FEF7D6FEFE
:102CB0000220FEF7A7FD012280212046FEF7CEFE6E
:102CC0000220FEF79FFD002010BD00000004004818
:102CD000002240210148FEF7C1BE00000004004868
:102CE000F8B50E4C06460D466068A8B10020FFF707
:102CF0009BFF8DF800008DF801608DF80250FFF702
:102D0000E7FF0A23032269466068FFF7F9FC0446DF
:102D1000FFF756FF2046F8BD0120F8BD0400002053
:102D200070B50C460546C9B2FFF7DAFF002806D198
:102D3000210A6D1CE8B2BDE87040FFF7D1BF70BD3D
:102D400030B58BB0002408940994202168460A9479
:102D5000FDF7B2FA23484FF0A041042501604FF47B
:102D60004031C0E9011485610121C460C0E904411A
:102D7000047744770221016280F82440C46204632E
:102D800080F83840C46380F84040FEF729FA08B163
:102D9000FDF77CFD08A913480894FDF7C9FD08B1AB
:102DA000FDF774FD10480090062001900520029068
:102DB0007F200594CDE9030569460A48FDF768FEC2
:102DC00008B1FDF763FD094800900C2001906946A9
:102DD0000448FDF75DFE002801D0FDF757FD0BB05C
:102DE00030BD0000400000200200300404006008F4
:102DF0000D4808B5816C41F004018164816C01F0DB
:102E000004010091816C41F001018164806C002219
:102E100000F00100009011460B20FEF78BFEBDE88C
:102E200008400B20FEF778BE001002402DE9F0416B
:102E300086B014216846FDF73FFA2B48C16C41F07B
:102E40002001C164C16C01F020010591C16C41F009
:102E50000101C164C16C01F001010591C16C41F037
:102E60000201C164C16C01F002010591C16C41F025
:102E70000401C164C06CDFF8748000F004000590A8
:102E800000224FF4F0414046FEF7E8FD184F0122C2
:102E9000C0213846FEF7E2FD0122C0214046FEF780
:102EA000DDFD4FF4F140009001250024CDE90154EF
:102EB000694640460394FEF7B7FCC020009001AA83
:102EC0001120032682E8510069463846FEF7ACFC23
:102ED0004020CDE90005CDE9024669464046FEF7AF
:102EE000A3FC06B0BDE8F0810010024000040048D9
:102EF00000080048124810B5104901604FF4827173
:102F0000416000214FF4E062C0E902124FF4007208
:102F10000161C0E905122022C0E9072107224162B0
:102F2000C0E90A12016308214163FFF741FB002851
:102F300003D0BDE81040FDF7A9BC10BD0030014032
:102F40000C010020FEE7FEE77047F8B515460E4677
:102F50000B460092044600224FF4C05100F01AF8CC
:102F600088B93346002280212046009500F082F87F
:102F700048B9334600224FF4C0612046009500F066
:102F800009F8002804D0206E40F0200020660320BD
:102F9000F8BD00002DE9FE4F4FF0000A9846174695
:102FA0000E4604460C9D8DF804A0FEF75DFD411B06
:102FB000A8EB0105FEF758FD814620684FF4C06B71
:102FC0000C3002902A480068C0EBC00000EB800083
:102FD000000D6843009016E05E4506D12FB90298B7
:102FE00000788DF804009DF80400B8F1FF3F0AD086
:102FF000FEF73AFDA0EB0900A8420CD25DB10098A3
:1030000098B3401E0090206880683040B842E3D1F9
:103010000020BDE8FE8F2068416821F0E00141609A
:103020006068B0F5827F0BD1A068B0F5004F02D088
:10303000B0F5806F04D12068016821F04001016083
:10304000A06AB0F5005F09D12068016821F4005141
:1030500001602068016841F400510160012084F89A
:103060005D0084F85CA00320D3E7FFE70025CAE7F2
:103070003C0000202DE9F8431E4691468846044650
:10308000089DFEF7F1FC401B351AFEF7EDFC0746E4
:1030900026480068C0F3CB3068430AE0701C09D0B2
:1030A000FEF7E2FCC01BA8420FD275B10098B8B37E
:1030B000401E00902068816838EA010033D000216A
:1030C0004945EBD10020BDE8F8832068416821F034
:1030D000E00141606068B0F5827F0BD1A068B0F577
:1030E000004F02D0B0F5806F04D12068016821F054
:1030F00040010160A06AB0F5005F09D12068016855
:1031000021F4005101602068016841F40051016020
:10311000012084F85D00002084F85C000320D2E7E1
:10312000FFE70025C6E70121CAE700003C000020B8
:103130007047FEF79FBC00B593B038216846FDF795
:10314000BBF814210EA8FDF7B7F80020FEF724FD08
:103150000220C1010391402104910421CDE908011D
:1031600000905521CDE90A1007900C900D9068460B
:10317000FFF71CF808B172B6FEE70F200E9003208F
:103180000F90002010901190129004210EA8FEF7CD
:10319000E9FE002801D072B6FEE713B000BD0000C2
:1031A0000248016841F470010160704788ED00E059
:1031B000FEE70907090E002804DB00F1E02080F893
:1031C0000014704700F00F0000F1E02080F8141D9B
:1031D00070470000FEF756FCFFF7ADFFFFF726FE35
:1031E000FFF706FEFFF7ACFDFFF784FE00210D4858
:1031F000FFF7EEFC0C4C18B1206840F00100206095
:103200000A48FDF735F918B1206840F0020006E0E1
:10321000FDF760F90228FBD1206840F0040020602F
:10322000F6E700000C010020000000204000002014
:103230004FF04070E1EE100A7047000000000000FF
:103240000000010203040607080900006C320008B0
:10325000000000204000000014020008AC3200080A
:103260004000002028090000300200080000000093
:10327000000000000000000000000000000000004E
:10328000000000001400000000000000000000002A
:10329000000000000000000000000000100000001E
:0C32A00001000000000000000024F40009
:04000005080001D915
:00000001FF
